:100000000C942A000C947D030C9447000C94470038
:100010000C9447000C9447000C9413050C94470073
:100020000C9447000C94B5040C9447000C945D04A8
:100030000C9447000C9447000C9447000C94470024
:100040000C9454030C9447000C9447000C94470004
:100050000C94470011241FBECFE5D8E0DEBFCDBF12
:1000600010E0A0E6B0E0E2E0F5E102C005900D92FC
:10007000AA37B107D9F720E0AAE7B0E001C01D9286
:10008000AF39B207E1F70E9461000C947F0A0C942B
:1000900000008AE790E00E947005089581E690E0F4
:1000A0000E94C20280E690E00E9485000E94A204A5
:1000B0000E94FA040E94040589E490E00E940E0563
:1000C00008950E944E0060919D0070919E00809165
:1000D0007A0090917B000E94430320919D00309113
:1000E0009E0040E060E081E690E00E94160380916F
:1000F000600088232CF466E083E00E94E403E3CFF1
:1001000066E083E00E940104DECFFC01892B81F0D0
:1001100080818F70282F30E0243031055CF46081BD
:1001200062956F70677040E00E94A60381E00895B9
:1001300080E0089580E008951F93CF93DF930097A8
:10014000A1F1162FEC016A8167708881412F4170FF
:100150008F700E941F046A81669566956695677028
:10016000888111FB442740F98F700E941F046A8127
:10017000862F82958695869583706B816170660F58
:10018000660F682B888112FB442740F98F700E940C
:100190001F046B8166956770888113FB442740F9C3
:1001A0008F700E941F0481E001C080E0DF91CF9139
:1001B0001F910895CF93DF930097E9F0EC016B81D5
:1001C00062956F706770888141E082958F700E94A0
:1001D0001F048FE493EC0197F1F700C000006B81DE
:1001E00062956F706770888140E082958F700E9481
:1001F0001F0481E001C080E0DF91CF9108951F933B
:10020000CF93DF93009749F1162FEC016B81862F76
:10021000881F8827881F6C816370660F682B89810F
:1002200040E08F700E941F04612F62956F70CE01B5
:100230000E949C00CE010E94DA00612F6F70CE01F7
:100240000E949C00CE010E94DA0083EF91E00197AA
:10025000F1F700C0000081E001C080E0DF91CF91A4
:100260001F910895CF93DF93EC016B8162956F70BE
:100270006770888141E082958F700E94A6036B8130
:10028000862F881F8827881F6C816370660F682BF4
:10029000898141E08F700E94A6036C816695669506
:1002A0006770898141E082958F700E94A6036A8100
:1002B0006770888141E08F700E94A6036A8166950D
:1002C000669566956770888141E08F700E94A603ED
:1002D0006A81862F82958695869583706B81617081
:1002E000660F660F682B888141E08F700E94A6031D
:1002F0006B8166956770888141E08F700E94A603CC
:100300008FE097E20197F1F700C000006B816295E2
:100310006F706770888140E082958F700E941F0423
:100320006B81862F881F8827881F6C816370660FFA
:10033000682B898140E08F700E941F046C81669554
:1003400066956770898140E082958F700E941F04D6
:100350006A816770888141E08F700E941F046A8102
:100360006695669566956770888141E08F700E94FA
:100370001F046A81862F82958695869583706B818E
:100380006170660F660F682B888140E08F700E9455
:100390001F046B8166956770888140E08F700E94B2
:1003A0001F04CE010E94DA0081EE94E00197F1F77C
:1003B00000C000006B8162956F706770888140E0BB
:1003C00082958F700E941F046B81862F881F88275B
:1003D000881F6C816370660F682B898140E08F7085
:1003E0000E941F046C81669566956770898140E064
:1003F00082958F700E941F046A816770888141E036
:100400008F700E941F046A81669566956695677075
:10041000888141E08F700E941F046A81862F829537
:100420008695869583706B816170660F660F682B69
:10043000888140E08F700E941F046B816695677011
:10044000888140E08F700E941F04CE010E94DA0074
:1004500092E39A95F1F76B8162956F70677088816E
:1004600040E082958F700E941F046B81862F881F49
:100470008827881F6C816370660F682B898140E034
:100480008F700E941F046C816695669567708981E4
:1004900040E082958F700E941F046A816770888196
:1004A00041E08F700E941F046A816695669566958B
:1004B0006770888141E08F700E941F046A81862FD7
:1004C00082958695869583706B816170660F660F45
:1004D000682B888140E08F700E941F046B816695B5
:1004E0006770888140E08F700E941F04CE010E94D7
:1004F000DA0061E0CE010E94FF0089EF90E00197F1
:10050000F1F700C0000062E0CE010E94FF0089EF19
:1005100090E00197F1F700C0000066E0CE010E9474
:10052000FF0089EF90E00197F1F700C000006CE058
:10053000CE010E94FF0089EF90E00197F1F700C023
:1005400000006CE1CE010E94FF0089EF90E001976E
:10055000F1F700C0000068E2CE010E94FF0089EFC1
:1005600090E00197F1F700C0000060E8CE010E9422
:10057000FF0089EF90E00197F1F700C00000DF91E4
:10058000CF910895009721F00E94320181E00895F3
:1005900080E00895623071F018F4613031F0089510
:1005A000633069F0643081F008956FE7640F0E9452
:1005B000FF0008956FEB640F0E94FF00089563E948
:1005C000640F0E94FF00089563ED640F0E94FF0016
:1005D00008951F93CF93DF93009719F1162FEC0125
:1005E0006B81862F881F8827881F6C816370660F38
:1005F000682B898141E08F700E941F04612F6295F2
:100600006F70CE010E949C00CE010E94DA00612F23
:100610006F70CE010E949C00CE010E94DA0081E042
:1006200001C080E0DF91CF911F910895EF92FF927A
:100630000F931F93CF93DF938C01F62EE42EE901E5
:100640000097C9F062E00E94FF004E2D6F2DC80197
:100650000E94CA0280E00BC02196C8010E94E902F4
:1006600089EF90E00197F1F700C0000081E0688118
:100670006111F2CF01C080E0DF91CF911F910F9106
:10068000FF90EF9008959F938F9386E690E09F935D
:100690008F937F936F930E9495070F900F900F9009
:1006A0000F900F900F9008951F920F920FB60F9218
:1006B00011242F933F934F935F936F937F938F9367
:1006C0009F93AF93BF93EF93FF93E0917C00F091E2
:1006D0007D00309709F00995FF91EF91BF91AF919F
:1006E0009F918F917F916F915F914F913F912F914A
:1006F0000F900FBE0F901F9018951F920F920FB67C
:100700000F9211242F933F934F935F936F937F9397
:100710008F939F93AF93BF93EF93FF93E0917E00EE
:10072000F0917F00309709F00995FF91EF91BF910B
:10073000AF919F918F917F916F915F914F913F9179
:100740002F910F900FBE0F901F9018958430A0F539
:100750006830A0F54230A0F5442319F04130B9F0DB
:1007600031C0E82FF0E0EE0FFF1FEF58FF4F019070
:10077000F081E02D208181E090E002C0880F991F78
:100780006A95E2F780958223808381E00895E82FBF
:10079000F0E0EE0FFF1FEF58FF4F0190F081E02DCA
:1007A000208181E090E002C0880F991F6A95E2F7EE
:1007B000822B808381E0089580E0089580E0089591
:1007C00080E0089581E008958430B8F46830B8F48A
:1007D000E82FF0E0EE0FFF1FE759FF4F0190F08187
:1007E000E02D208181E090E002C0880F991F6A957A
:1007F000E2F7822B808381E0089580E0089580E015
:1008000008958430C0F46830C0F4E82FF0E0EE0FB3
:10081000FF1FE759FF4F0190F081E02D208181E01B
:1008200090E002C0880F991F6A95E2F780958223B5
:10083000808381E0089580E0089580E00895843009
:10084000A0F56830A0F54230A0F5442319F04130FE
:10085000B9F031C0E82FF0E0EE0FFF1FE759FF4F6E
:100860000190F081E02D208181E090E002C0880FAE
:10087000991F6A95E2F780958223808381E008952D
:10088000E82FF0E0EE0FFF1FE759FF4F0190F081D6
:10089000E02D208181E090E002C0880F991F6A95C9
:1008A000E2F7822B808381E0089580E0089580E064
:1008B000089580E0089581E008951F920F920FB689
:1008C0000F9211242F933F934F935F936F937F93D6
:1008D0008F939F93AF93BF93EF93FF9360918000AB
:1008E000709181006F5F7F4F7093810060938000F3
:1008F00080E090E00E947606209182003091830093
:1009000040918400509185000E94D005811109C05A
:10091000E0918600F0918700099510928100109275
:100920008000FF91EF91BF91AF919F918F917F9147
:100930006F915F914F913F912F910F900FBE0F904C
:100940001F9018958FB58E7F8FBD8FB58D7F8FBD12
:100950008EB5877F8EBD8EB58F7E8EBD89B7846044
:1009600089BF8FB780688FBF08951F920F920FB60F
:100970000F9211242F933F934F935F936F937F9325
:100980008F939F93AF93BF93EF93FF9360918800F2
:10099000709189006F5F7F4F70938900609388002A
:1009A00080E090E00E9476062091950030919600BC
:1009B00040919700509198000E94D005811109C084
:1009C000E0919B00F0919C00099510928900109293
:1009D0008800FF91EF91BF91AF919F918F917F918F
:1009E0006F915F914F913F912F910F900FBE0F909C
:1009F0001F90189581B38F7B81BB8EB580648EBDAF
:100A000089B7806289BF08958EB58E7F8EBD8EB501
:100A100082608EBD8EB58B7F8EBD089590939A00B7
:100A20008093990008951F920F920FB60F92112490
:100A30002F933F934F935F936F937F938F939F93E6
:100A4000AF93BF93EF93FF9380918A00811113C0FE
:100A500087B590E0982F882726B5822B9093940035
:100A60008093930010929500109296001092970038
:100A70001092980014C080918A00813081F487B56B
:100A800090E0982F882726B5822B90939200809330
:100A9000910089B78F7D89BF89B78B7F89BF80918E
:100AA0008A008F5F80938A0080918A00823039F4B7
:100AB000E0919900F0919A00099510928A00FF91B7
:100AC000EF91BF91AF919F918F917F916F915F91C6
:100AD0004F913F912F910F900FBE0F901F9018953F
:100AE000CF93DF93EC018091950090919600A091B7
:100AF0009700B0919800809193009091940020917C
:100B0000910030919200821B930B90939000809300
:100B10008F0060918F007091900080E090E00E94C3
:100B2000760620E030E040E05FE30E9428070E9464
:100B3000470670938E0060938D0060918D007091D8
:100B40008E0080E090E00E9476069B01AC0160E0A0
:100B500070E080E89FE30E94D50520E034E244E79E
:100B600059E40E9428070E94470670938C00609306
:100B70008B0080918B0090918C009983888389B73A
:100B8000806289BF89B7846089BF109295001092F6
:100B900096001092970010929800DF91CF910895DF
:100BA0000E94B30608F481E008950E94E9050C94C0
:100BB000EE060E94E70658F00E94E00640F029F495
:100BC0005F3F29F00C94D70651110C9422070C9426
:100BD000DD060E94FF0668F39923B1F3552391F3D4
:100BE000951B550BBB27AA2762177307840738F09C
:100BF0009F5F5F4F220F331F441FAA1FA9F335D0F9
:100C00000E2E3AF0E0E832D091505040E695001CAC
:100C1000CAF72BD0FE2F29D0660F771F881FBB1F66
:100C2000261737074807AB07B0E809F0BB0B802D44
:100C3000BF01FF2793585F4F3AF09E3F510578F070
:100C40000C94D7060C9422075F3FE4F3983ED4F34C
:100C5000869577956795B795F7959F5FC9F7880F44
:100C6000911D9695879597F90895E1E0660F771F96
:100C7000881FBB1F621773078407BA0720F0621B27
:100C8000730B840BBA0BEE1F88F7E09508950E9452
:100C9000070788F09F5798F0B92F9927B751B0F000
:100CA000E1F0660F771F881F991F1AF0BA95C9F7F0
:100CB00014C0B13091F00E942107B1E008950C9466
:100CC0002107672F782F8827B85F39F0B93FCCF319
:100CD000869577956795B395D9F73EF4909580956D
:100CE000709561957F4F8F4F9F4F0895E89409C08D
:100CF00097FB3EF490958095709561957F4F8F4F4F
:100D00009F4F9923A9F0F92F96E9BB279395F69564
:100D1000879577956795B795F111F8CFFAF4BB0FE2
:100D200011F460FF1BC06F5F7F4F8F4F9F4F16C046
:100D3000882311F096E911C0772321F09EE8872FD0
:100D4000762F05C0662371F096E8862F70E060E08C
:100D50002AF09A95660F771F881FDAF7880F969505
:100D6000879597F90895990F0008550FAA0BE0E8A9
:100D7000FEEF16161706E807F907C0F0121613065D
:100D8000E407F50798F0621B730B840B950B39F49D
:100D90000A2661F0232B242B252B21F408950A2603
:100DA00009F4A140A6958FEF811D811D089597F943
:100DB0009F6780E870E060E008959FEF80EC089501
:100DC00000240A941616170618060906089500242A
:100DD0000A9412161306140605060895092E0394A4
:100DE000000C11F4882352F0BB0F40F4BF2B11F418
:100DF00060FF04C06F5F7F4F8F4F9F4F089557FD77
:100E00009058440F551F59F05F3F71F04795880F78
:100E100097FB991F61F09F3F79F08795089512160F
:100E200013061406551FF2CF4695F1DF08C01616BB
:100E300017061806991FF1CF86957105610508946C
:100E40000895E894BB2766277727CB0197F9089583
:100E50000E943B070C94EE060E94E00638F00E94C8
:100E6000E70620F0952311F00C94D7060C94DD06CC
:100E700011240C9422070E94FF0670F3959FC1F382
:100E8000950F50E0551F629FF001729FBB27F00D38
:100E9000B11D639FAA27F00DB11DAA1F649F66278D
:100EA000B00DA11D661F829F2227B00DA11D621FDC
:100EB000739FB00DA11D621F839FA00D611D221F96
:100EC000749F3327A00D611D231F849F600D211D7A
:100ED000822F762F6A2F11249F5750409AF0F1F0FD
:100EE00088234AF0EE0FFF1FBB1F661F771F881F66
:100EF00091505040A9F79E3F510580F00C94D706C1
:100F00000C9422075F3FE4F3983ED4F386957795DF
:100F10006795B795F795E7959F5FC1F7FE2B880F0B
:100F2000911D9695879597F90895AEE0B0E0EBE9AD
:100F3000F7E00C94560A0D891E8986E08C831A838B
:100F400009838FEF9FE79E838D83AE01475E5F4FDE
:100F50006F89788DCE0101960E94B707EF81F885E1
:100F6000E00FF11F10822E96E4E00C94720AABE0C1
:100F7000B0E0EDEBF7E00C94480A6C017B018A01CC
:100F8000FC0117821682838181FFCCC1CE010196BC
:100F90003C01F6019381F70193FD859193FF8191C7
:100FA0007F01882309F4BAC1853239F493FD859114
:100FB00093FF81917F01853229F4B60190E00E9470
:100FC000AE09E7CF912C212C312CFFE1F315D8F09D
:100FD0008B3279F038F4803279F08332A1F4232D0A
:100FE00020611DC08D3261F0803369F4232D2160B2
:100FF00016C0832D8260382EE32DE4603E2E2AC079
:10100000F32DF8601DC037FC2DC020ED280F2A30CD
:1010100040F08E32B9F436FC81C1232D2064322E8B
:1010200019C036FE06C08AE0989E200D1124922E2B
:1010300011C0EAE02E9E200D1124222EF32DF06225
:101040003F2E08C08C3621F4832D8068382E02C0D4
:10105000883641F4F70193FD859193FF81917F01DB
:101060008111B3CF982F9F7D9554933028F40C5F56
:101070001F4F9FE399830DC0833631F0833771F0A2
:10108000833509F059C021C0F801808189830E5F42
:101090001F4F88248394912C530113C02801F2E040
:1010A0004F0E511CF801A080B18036FE03C0692D9F
:1010B00070E002C06FEF7FEFC5010E94A3094C01F1
:1010C0008201F32DFF773F2E16C0280122E0420E49
:1010D000511CF801A080B18036FE03C0692D70E07C
:1010E00002C06FEF7FEFC5010E9498094C01F32DFC
:1010F000F0683F2E820133FC1BC0822D90E08816E1
:101100009906B0F4B60180E290E00E94AE092A94FC
:10111000F4CFF50137FC859137FE81915F01B6016F
:1011200090E00E94AE0921102A9421E0821A9108D1
:101130008114910471F7E8C0843611F0893641F5C5
:10114000F80137FE07C060817181828193810C5F55
:101150001F4F08C060817181072E000C880B990B0E
:101160000E5F1F4FF32DFF763F2E97FF09C090951E
:101170008095709561957F4F8F4F9F4FF0683F2E00
:101180002AE030E0A3010E94EA09882E861845C0B3
:10119000853731F4232D2F7EB22E2AE030E025C092
:1011A000932D997FB92E8F36C1F018F4883579F0D8
:1011B000B5C0803719F0883721F0B0C0E92FE06161
:1011C000BE2EB4FE0DC0FB2DF460BF2E09C034FE50
:1011D0000AC0292F2660B22E06C028E030E005C0E4
:1011E00020E130E002C020E132E0F801B7FE07C0A4
:1011F00060817181828193810C5F1F4F06C0608185
:10120000718180E090E00E5F1F4FA3010E94EA0908
:10121000882E8618FB2DFF773F2E36FE0DC0232D1E
:101220002E7FA22E891458F434FE0BC032FC09C064
:10123000832D8E7EA82E05C0B82CA32C03C0B82CFD
:1012400001C0B92CA4FE0FC0FE01E80DF11D808184
:10125000803321F49A2D997EA92E09C0A2FE06C0E2
:10126000B394B39404C08A2D867809F0B394A3FC98
:1012700011C0A0FE06C0B21488F4280C922C9B1852
:101280000EC0B21460F4B60180E290E00E94AE0994
:10129000B394F7CFB21418F42B1802C0982C212C59
:1012A000A4FE10C0B60180E390E00E94AE09A2FE49
:1012B00017C0A1FC03C088E790E002C088E590E079
:1012C000B6010CC08A2D867859F0A1FE02C08BE2CF
:1012D00001C080E2A7FC8DE2B60190E00E94AE0959
:1012E000891438F4B60180E390E00E94AE099A9424
:1012F000F7CF8A94F301E80DF11D8081B60190E0EB
:101300000E94AE098110F5CF222009F442CEB60129
:1013100080E290E00E94AE092A94F6CFF601868121
:10132000978102C08FEF9FEF2B96E2E10C94640A45
:10133000FC010590615070400110D8F780959095A0
:101340008E0F9F1F0895FC016150704001900110A5
:10135000D8F7809590958E0F9F1F08950F931F9338
:10136000CF93DF93FB01238121FD03C08FEF9FEF1C
:101370002CC022FF16C04681578124813581421737
:10138000530744F4A081B1819D012F5F3F4F31830A
:1013900020838C93268137812F5F3F4F37832683AD
:1013A00014C08B01EC01FB010084F185E02D09954F
:1013B000892BE1F6D80116968D919C91179701968D
:1013C00017969C938E931697CE01DF91CF911F9124
:1013D0000F910895FA01AA27283051F1203181F1A7
:1013E000E8946F936E7F6E5F7F4F8F4F9F4FAF4F2D
:1013F000B1E03ED0B4E03CD0670F781F891F9A1F40
:10140000A11D680F791F8A1F911DA11D6A0F711DF3
:10141000811D911DA11D20D009F468943F912AE0FF
:10142000269F11243019305D3193DEF6CF010895E7
:10143000462F4770405D4193B3E00FD0C9F7F6CF18
:10144000462F4F70405D4A3318F0495D31FD4052E0
:10145000419302D0A9F7EACFB4E0A6959795879576
:1014600077956795BA95C9F7009761057105089555
:101470009B01AC010A2E0694579547953795279501
:10148000BA95C9F7620F731F841F951FA01D089599
:101490002F923F924F925F926F927F928F929F9284
:1014A000AF92BF92CF92DF92EF92FF920F931F9372
:1014B000CF93DF93CDB7DEB7CA1BDB0B0FB6F89423
:1014C000DEBF0FBECDBF09942A88398848885F8463
:1014D0006E847D848C849B84AA84B984C884DF80D4
:1014E000EE80FD800C811B81AA81B981CE0FD11DB8
:1014F0000FB6F894DEBF0FBECDBFED010895F8948E
:02150000FFCF1B
:10150200011011ACBF082569003B003800350032DC
:0A151200003A0037003400310000F9
:00000001FF
